:030000000208F300
:0C08F300787FE4F6D8FD75817302093AA5
:0B0E0200EF1FAC0670011E4C70F622C2
:100D4700E4FDFCC3ED9FEC9E5015E4FBFA0BBB00E2
:0F0D5700010AEB64644A70F50DBD00010C80E4E5
:010D6600226A
:100815005231253032642E25303164005232253074
:1008250032642E25303164005431253032642E2552
:10083500303164005432253032642E253031640065
:100845005433253032642E2530316400726573745B
:1008550061727420636F6C6C656374696E672E2EAC
:100865002E0A0041542B5253540D0A0041542B4378
:10087500574D4F44453D310D0A0041542B43574ACE
:1008850041503D225553525F473830355F3033373D
:1008950039222C227777772E7573722E636E220D8F
:1008A5000A0041542B43495053544152543D22545C
:1008B5004350222C22343766356D33323231392E8E
:1008C500716963702E766970222C35383337390D8E
:1008D5000A0041542B4349504D4F44453D310D0AC3
:0E08E5000041542B43495053454E440D0A0028
:090DA300042900000000012800F1
:1003820012000E120DE57FD07E07120D47120DF5F9
:100392007FE87E03120D471209FA120A71120DD577
:1003A200E528640170FAF528C2A91209FA120A7145
:1003B200E4FF120BF88F5A7F057E00120D477F0172
:1003C200120BF88F5B7F057E00120D47E55A25E080
:1003D200FFE433FEEF24B0FFEE34FFFE7C007D032A
:1003E2001206368E5C8F5D7F057E00120D47E55B3F
:1003F20025E0FFE433FEEF24B0FFEE34FFFE7C0085
:100402007D031206368E5E8F5F7F057E00120D47DA
:10041200AF27EF3395E0FED3EF9407EE648094802C
:10042200403EAF25EF3395E0FED3EF9405EE6480B6
:100432009480500A7563017B017D01E48029AF2518
:10044200EF3395E0FED3EF9437EE6480948050064C
:10045200756301E48003E4F563FB7D017F0180089D
:100462007563017B01E4FDFF120DBFD3E55F943795
:10047200E55E94004038AF27EF3395E0FED3EF946A
:1004820009EE648094804024D3E55F955DE55E9536
:100492005C4059D3E55D9437E55C94004008756390
:1004A200017B01E4806DE4F563FB8067803EAF274A
:1004B200EF3395E0FED3EF9409EE648094804021FF
:1004C200AF25EF3395E0FEC3EF9437EE648094805E
:1004D20050077563017B018004E4F563FB7D0180B5
:1004E20033C3E55F955DE55E955C50097563017BFD
:1004F20001E4FD801FAF26EF3395E0FEC3EF9403C6
:10050200EE6480948050087563017B01E48004E40A
:10051200F563FBFD7F01120DBF7563FF75640875FE
:100522006515855E66855F677B007A00794A1200F1
:10053200827563FF756408756521855C66855D67F4
:100542007B007A0079521200827563FF7564087528
:10055200652DAF25EF3395E0F5668F67AF0B7E0013
:100562007C007D051206248E688F697B007A0079F3
:10057200301200827563FF756408756539AF26EF26
:100582003395E0F5668F67AF0C7E007C007D051227
:1005920006248E688F697B007A0079381200827592
:1005A20063FF756408756545AF27EF3395E0F5661F
:1005B2008F67AF0D7E007C007D051206248E688F4A
:1005C200697B007A0079401200827A007930120B3E
:1005D200C57A007938120BC57B007A0079407D0A12
:1005E200120BC97B007A00794A7D08120BC97B0085
:1005F2007A0079527D08120BC97BFF7A0879517D06
:0906020017120BC9D2A90203A2D0
:100DD500438901758CB1758AE0D2AFD2A9D28C2234
:03000B0002097F68
:10097F00C0E0C0F0C083C082C0D075D000C000C03E
:10098F0001C002C003C004C005C006C007758A00BD
:10099F00758CB8E52C2401F52CE4352BF52BE435BB
:1009AF002AF52AE43529F529E47BB87A0BF9F8AF53
:1009BF002CAE2BAD2AAC291206A8AC00AD01AE02AD
:1009CF00AF03E4FBFAF9F8C312073A700375280175
:1009DF00D007D006D005D004D003D002D001D0006C
:0B09EF00D0D0D082D083D0F0D0E03216
:100DE500759850438920758DFDD28ED2AFD2AC2235
:100D2600E4F5658F99209916C3E5659464748094FB
:100D360080500B05657F147E00120E0280E7C29973
:010D4600228A
:040BC5007B007D082C
:080BC9008B608A6189628D6373
:100BD100E4F564E564C39563501CAB60AA61A96246
:100BE10012060BFF120D2674012562F562E43561D0
:060BF100F561056480DDE2
:010BF70022DB
:03002300020E0DBD
:0B0E0D00309802C298309902C299325E
:100D04007F057E00120E02D2A17F057E00120E0224
:100D1400C2A07F057E00120E02C2A17F057E0002E2
:020D24000E02BD
:100D6700C2A07F057E00120E02D2A17F057E00126F
:0E0D77000E02D2A07F057E00120E02C2A12243
:100CE000D2A17F057E00120E0230A00FC3E56294F0
:100CF0005E748094815004056280EEC2A07F057E00
:040D000000020E02DD
:10000E00D2A07F057E00120E02D2A17F057E0002D5
:02001E000E02D0
:100ACB008F63E4F562C3E5629408748094805025CB
:100ADB00E56325E0F563C2A17F057E00120E02924D
:100AEB00A07F057E00120E02D2A17F057E00120EA2
:100AFB0002056280D0C2A17F057E00120E02D2A039
:070B0B007F057E00020E02CF
:100B1200C2A17F057E00120E02D2A07F057E0012C6
:100B22000E02E4F562C3E562940874809480502258
:100B3200D2A17F057E00120E02E56325E0FFA2A08E
:100B4200E4334FF563C2A17F057E00120E020562F7
:040B520080D3AF633A
:010B5600227C
:100D8500C2A17F057E00120E02C2A07F057E001261
:0E0D95000E02D2A17F057E00120E02C2A12224
:020BF8008F600C
:100BFA00120D047F90120ACB120CE0AF60120ACBDE
:100C0A00120CE0120D67120D047F91120ACB120C1E
:0E0C1A00E0120B128F61120D85120D67AF6193
:010C280022A9
:100A71001209FA85082D85092E850A2F1209FA8592
:100A81000822850923850A24AF22EF3395E0FEADC4
:100A91002DED3395E0FCC3ED9FFFEC9EFED3EF946B
:100AA10003EE648094805019AF22EF3395E0FEC3CA
:100AB100EF9DFFEE9CFED3EF9403EE6480948040A3
:0A0AC10003852D25852225AF25228F
:0D0DF500D280D281D282D283D284D28522D4
:100DBF00EF24FF9284ED24FF9283EB24FF9282E5D0
:060DCF006324FF9285225F
:100DAC00010800010B00010900010C00010A0001FF
:020DBC000D0028
:100B9100E4D2A5D2A6D2A77F08FE120E02C2A6C237
:100BA100A77F507E00120E02D2A5D2A6D2A77F0E39
:100BB1007E00120E02A2A5A2A6A2A7E4337F147E94
:040BC10000020E021E
:100C2900E4F566F567756608D3E566940074809403
:100C390080401AC2A5E56713F567D2A530A503431D
:0F0C490067807F047E00120E02156680DBAF67A6
:010C58002279
:100C5900E4F566F567756608D3E5669400748094D3
:100C690080401AC2A6E56713F567D2A630A60343EA
:0F0C790067807F047E00120E02156680DBAF6776
:010C88002249
:100C8900E4F566F567756608D3E5669400748094A3
:100C990080401AC2A7E56713F567D2A730A70343B7
:0F0CA90067807F047E00120E02156680DBAF6746
:010CB8002219
:020B57008F66A7
:100B5900E4F567756708D3E567940074809480406D
:100B690026C2A5C2A6C2A7E5661392A592A692A718
:100B79007F027E00120E02D2A5D2A6D2A7E566C3D5
:070B890013F566156780CF2C
:010B90002242
:1009FA00E4F560F561F562F563F564F565120B914E
:100A0A007FCC120B577F44120B57120B917FCC12DB
:100A1A000B577FBE120B577F907E01120E02120CEB
:100A2A00298F607F907E01120E02120C598F627F0D
:100A3A00907E01120E02120C898F647F907E011241
:100A4A000E02E560C313F508E5605401F50BE56293
:100A5A00C313F509E5625401F50CE564C313F50AFD
:060A6A00E5645401F50DE6
:010A70002263
:1008FF00020382E493A3F8E493A34003F68001F28A
:10090F0008DFF48029E493A3F85407240CC8C333F9
:10091F00C4540F4420C8834004F456800146F6DFC8
:10092F00E4800B0102040810204080900DA3E47EA8
:10093F00019360BCA3FF543F30E509541FFEE493BD
:10094F00A360010ECF54C025E060A840B8E493A384
:10095F00FAE493A3F8E493A3C8C582C8CAC583CAAF
:10096F00F0A3C8C582C8CAC583CADFE9DEE780BE67
:010DBE000034
:10060B00BB010689828A83E0225002E722BBFE02ED
:09061B00E32289828A83E4932220
:10062400EF8DF0A4A8F0CF8CF0A428CE8DF0A42EEA
:02063400FE22A4
:10063600C2D5EC30E709B2D5E4C39DFDE49CFCEEDF
:1006460030E715B2D5E4C39FFFE49EFE12078AC3C6
:10065600E49DFDE49CFC800312078A30D507C3E4C1
:060666009FFFE49EFE224E
:10066C0075F008758200EF2FFFEE33FECD33CDCC45
:10067C0033CCC58233C5829BED9AEC99E5829840C8
:10068C000CF582EE9BFEED9AFDEC99FC0FD5F0D6A5
:10069C00E4CEFBE4CDFAE4CCF9A88222B800C1B9CF
:1006AC000059BA002DEC8BF084CFCECDFCE5F0CB0D
:1006BC00F97818EF2FFFEE33FEED33FDEC33FCEB46
:1006CC0033FB10D703994004EB99FB0FD8E5E4F901
:1006DC00FA227818EF2FFFEE33FEED33FDEC33FCEE
:1006EC00C933C910D7059BE99A4007EC9BFCE99AE2
:1006FC00F90FD8E0E4C9FAE4CCFB2275F010EF2F27
:10070C00FFEE33FEED33FDCC33CCC833C810D70726
:10071C009BEC9AE899400AED9BFDEC9AFCE899F861
:0E072C000FD5F0DAE4CDFBE4CCFAE4C8F922F4
:10073A00EB9FF5F0EA9E42F0E99D42F0E89C45F015
:01074A00228C
:10002600E56F2463F8E6056F22786030070278638F
:10003600E475F0011207DF02060B2000EB7F2ED2DB
:10004600008018EF540F2490D43440D4FF30040BB2
:10005600EF24BFB41A0050032461FFE57060021557
:10006600700573E5737002057230070D7860E475EC
:10007600F0011207DFEF020778020CB97403D2070A
:100086008003E4C207F56F8B608A618962E4F570CC
:10009600F572F573E57060077F2012006180F575D3
:1000A60071FFC201C200C202C203C205C206C20873
:1000B60012002FFF700D3007057F00120072AF731C
:1000C600AE7222B4255FC2D5C20412002FFF24D01F
:1000D600B40A00501A75F00A787030D50508B6FFD4
:1000E6000106C6A426F620D5047002D20380D924C0
:1000F600CFB41A00EF5004C2E5D204020272D20154
:1001060080C6D20080C0D20280BCD2D580BAD205C9
:1001160080B47F201200612002077401B570004090
:10012600F1120026FF12006102009AD208D2068060
:1001360095120026FB120026FA120026F94A4B7089
:100146000679437A037BFF20022EE570602A7E0043
:100156008E8275830012074B60060EEE657170F095
:10016600C2D5EBC0E0EAC0E0E9C0E0EE1202B9D0C9
:10017600E0F9D0E0FAD0E0FB12060BFF60AAEBC074
:10018600E0EAC0E0E9C0E0120061D0E02401F9D065
:10019600E03400FAD0E0FBE5710460DCD571D9806B
:1001A600877BFF7A0279B5D202809C79108002792A
:1001B60008C206C2088008D2D5790A8004790AC224
:1001C600D5E571047002F571E4FAFDFEFF12002612
:1001D600FC7B08200113120026FD7B1030000A125A
:1001E6000026FE120026FF7B20EC3382D592D550E6
:1001F60013C3E43000069FFFE49EFEE42001039D46
:10020600FDE49CFCE4CBF8C201EC700CCFCECDCC67
:10021600E824F8F870F38017C3EF33FFEE33FEEDF2
:1002260033FDEC33FCEB33FB994002FB0FD8E9EBD3
:10023600300105F8D0E0C448B201C0E00AEC4D4EEA
:100246004F78207B0070C2EAB5710040BCC0E01256
:1002560002BBD0F0D0E0200104C4C0E0C4B201C0AB
:10026600F012004AD0F0D5F0EB02009A1207EF0127
:10027600375301B15801084C01044201B54F01BD85
:0F0286004401BD49011D4301C35501A74601A70E
:100295004501A747036350010C2D01102E01332B97
:1002A500011423013120034C2A00CC480000012B06
:1002B5003F3F3F00790AA2D5200314300509B91044
:1002C500020404B9080104A2D52006025001042045
:1002D50002689202B570005034C0E07F20300319E7
:1002E5007F30A20272067205500F120312C202C2BB
:1002F50006C205C2087F30800F300503E9C0E01251
:100305000061300503D0E0F9D0E0B570CC300517B9
:100315007F30B9100C1200617F583004077F788058
:1003250003B908031200613002057F2D0200617FC9
:10033500202008F87F2B2006F322920280CF286E1A
:10034500756C6C2900D2011200263001F8C20178C3
:100355007030D50108F60200CC2D504349581200E3
:10036500262403B405004001E490035E9312005275
:0D037500743A120052D2037570040201B1F7
:10074B00BB010CE58229F582E5833AF583E0225063
:10075B0006E92582F8E622BBFE06E92582F8E222AD
:0D076B00E58229F582E5833AF583E49322C7
:10077800BB010689828A83F0225002F722BBFE0160
:02078800F3225A
:10078A00BC000BBE0029EF8DF084FFADF022E4CC53
:10079A00F875F008EF2FFFEE33FEEC33FCEE9DEC1C
:1007AA00984005FCEE9DFE0FD5F0E9E4CEFD22ED62
:1007BA00F8F5F0EE8420D21CFEADF075F008EF2FAC
:1007CA00FFED33FD4007985006D5F0F222C398FD9D
:0507DA000FD5F0EA223A
:1007DF00FAE6FB0808E6F925F0F618E6CA3AF6221B
:1007EF00D083D082F8E4937012740193700DA3A399
:1007FF0093F8740193F5828883E4737402936860AD
:06080F00EFA3A3A380DFAC
:100CB900EFB40A07740D120CC4740A309811A8997C
:100CC900B8130CC2983098FDA899C298B811F6309B
:070CD90099FDC299F5992273
:00000001FF
